:020000040800F2
:10000000000002208D020008DD020008DD02000869
:10001000DD020008DD020008DD020008000000002B
:10002000000000000000000000000000DD020008E9
:10003000DD02000800000000DD020008DD0200080B
:10004000DD020008DD020008DD020008DD02000814
:10005000DD020008DD020008DD020008DD02000804
:10006000DD020008DD020008DD020008DD020008F4
:10007000DD020008DD020008DD020008DD020008E4
:10008000DD020008DD020008DD020008DD020008D4
:10009000DD020008DD020008DD020008DD020008C4
:1000A000DD020008DD020008DD020008DD020008B4
:1000B000DD020008DD020008DD020008DD020008A4
:1000C000DD020008DD020008DD020008DD02000894
:1000D000DD020008DD020008DD020008DD02000884
:1000E000DD020008DD020008DD020008DD02000874
:1000F000DD020008DD020008DD020008DD02000864
:10010000DD020008DD020008DD020008DD02000853
:10011000DD020008DD020008DD020008DD02000843
:10012000DD020008DD020008DD020008DD02000833
:10013000DD0200080000000000000000DD020008F1
:10014000DD020008DD020008DD020008DD02000813
:10015000DD020008DD020008DD020008DD02000803
:10016000DD020008DD020008DD020008DD020008F3
:10017000DD020008DD020008DD02000800000000CA
:1001800000000000DD020008000000000000000088
:10019000DD0200080000000000000000DD02000891
:1001A000000000000000000000000000DD02000868
:1001B000DD020008DD020008DD020008DD020008A3
:0401C000DD02000854
:1001C40010B5054C237833B9044B13B10448AFF38D
:1001D40000800123237010BD0000002000000000F7
:1001E4009403000808B5034B1BB103490348AFF35C
:1001F400008008BD000000000400002094030008F3
:1002040080B483B000AF00237B601B4A1A4B1B6889
:1002140023F001031360184A174B1B6843F00103D2
:100224001360164A154B1B6823F440631360134A8A
:10023400124B1B6843F480631360114A137843F034
:100244002003137000237B6002E07B6801337B6032
:100254007B680C4A9342F8D9094A13786FF3451323
:10026400137000237B6002E07B6801337B607B6852
:10027400044A9342F8D9E0E73038024000000240D3
:10028400140002403F420F00DFF834D0002103E0A5
:100294000C4B5B58435004310B480C4B42189A42A8
:1002A400F6D30B4A02E0002342F8043B094B9A427E
:1002B400F9D300F013F800F047F8FFF7A1FF7047F7
:1002C40000000220B4030008000000200000002009
:1002D400000000201C000020FEE7000080B400AFF6
:1002E400164A164BD3F8883043F47003C2F88830AA
:1002F400134A134B1B6843F001031360104B002295
:100304009A600F4A0E4B1B6823F0847323F48033E6
:1003140013600B4B0B4A5A60094A094B1B6823F4C0
:1003240080231360064B0022DA60044B4FF0006216
:100334009A6000BFBD465DF8047B704700ED00E0A5
:10034400003802401030002470B50D4E0D4CA41B33
:10035400A4100025A54209D10B4E0C4C00F018F84E
:10036400A41BA4100025A54205D170BD56F8253064
:1003740098470135EEE756F8253098470135F2E7FE
:10038400AC030008AC030008AC030008B003000889
:10039400F8B500BFF8BC08BC9E467047F8B500BF6E
:0803A400F8BC08BC9E4670473E
:0403AC00E90100085B
:0403B000C50100087B
:040000050800028D60
:00000001FF
